:100000000C942A000C943C000C943C000C943C0092
:100010000C943C000C943C000C943C000C943C0070
:100020000C943C000C943E000C943C000C943C005E
:100030000C943C000C943C000C943C000C943C0050
:100040000C943C000C943C000C943C000C943C0040
:100050000C943C0011241FBECFE5D4E0DEBFCDBF21
:1000600020E0A0E6B0E001C01D92A236B207E1F7A1
:100070000E9461000C946B000C9400001F920F9280
:100080000FB60F9211242F938F939F93809160004E
:1000900090916100019690936100809360008E368C
:1000A000914039F4109261001092600085B3809500
:1000B00085BB9F918F912F910F900FBE0F901F9036
:1000C000189583B7836083BF89B7816089BF8FEF3D
:0A00D00084BB7894FFCFF894FFCFB3
:00000001FF
