:100000000C942A000C943C000C943C000C943C0092
:100010000C943C000C943C000C943C000C943C0070
:100020000C943C000C943E000C943C000C943C005E
:100030000C943C000C943C000C943C000C943C0050
:100040000C943C000C943C000C943C000C943C0040
:100050000C943C0011241FBECFE5D4E0DEBFCDBF21
:1000600020E0A0E6B0E001C01D92A236B207E1F7A1
:100070000E945E000C9471000C9400001F920F927D
:100080000FB60F9211248F939F93809160009091EF
:10009000610001969093610080936000099739F4A4
:1000A00010926100109260008CB7865F8CBF9F91A8
:1000B0008F910F900FBE0F901F90189587B3886097
:1000C00087BB83B7846083BF83B7806483BF83B7F4
:1000D000806283BF81E08CBF89B7816089BF7894DB
:0600E000FFCFF894FFCFF2
:00000001FF
